{
  "contractName": "MetaData",
  "abi": [
    {
      "inputs": [],
      "stateMutability": "nonpayable",
      "type": "constructor"
    },
    {
      "inputs": [
        {
          "internalType": "bytes32",
          "name": "",
          "type": "bytes32"
        }
      ],
      "name": "tImgList",
      "outputs": [
        {
          "internalType": "bytes32",
          "name": "id",
          "type": "bytes32"
        },
        {
          "internalType": "string",
          "name": "imagehash",
          "type": "string"
        },
        {
          "internalType": "string",
          "name": "title",
          "type": "string"
        },
        {
          "internalType": "string",
          "name": "description",
          "type": "string"
        },
        {
          "internalType": "uint256",
          "name": "vote",
          "type": "uint256"
        },
        {
          "internalType": "uint256",
          "name": "time",
          "type": "uint256"
        }
      ],
      "stateMutability": "view",
      "type": "function",
      "constant": true
    },
    {
      "inputs": [
        {
          "internalType": "address",
          "name": "",
          "type": "address"
        }
      ],
      "name": "voters",
      "outputs": [
        {
          "internalType": "uint256",
          "name": "vote",
          "type": "uint256"
        }
      ],
      "stateMutability": "view",
      "type": "function",
      "constant": true
    },
    {
      "inputs": [
        {
          "internalType": "bytes32",
          "name": "_identifier",
          "type": "bytes32"
        }
      ],
      "name": "getImageMetaData",
      "outputs": [
        {
          "internalType": "string",
          "name": "",
          "type": "string"
        }
      ],
      "stateMutability": "view",
      "type": "function",
      "constant": true
    },
    {
      "inputs": [],
      "name": "getImages",
      "outputs": [
        {
          "components": [
            {
              "internalType": "bytes32",
              "name": "id",
              "type": "bytes32"
            },
            {
              "internalType": "string",
              "name": "imagehash",
              "type": "string"
            },
            {
              "internalType": "string",
              "name": "title",
              "type": "string"
            },
            {
              "internalType": "string",
              "name": "description",
              "type": "string"
            },
            {
              "internalType": "uint256",
              "name": "vote",
              "type": "uint256"
            },
            {
              "internalType": "uint256",
              "name": "time",
              "type": "uint256"
            }
          ],
          "internalType": "struct MetaData.TImage[]",
          "name": "",
          "type": "tuple[]"
        }
      ],
      "stateMutability": "view",
      "type": "function",
      "constant": true
    },
    {
      "inputs": [
        {
          "internalType": "bytes32",
          "name": "id",
          "type": "bytes32"
        }
      ],
      "name": "removeImage",
      "outputs": [],
      "stateMutability": "nonpayable",
      "type": "function"
    },
    {
      "inputs": [
        {
          "internalType": "bytes32",
          "name": "id",
          "type": "bytes32"
        }
      ],
      "name": "setVote",
      "outputs": [
        {
          "internalType": "uint256",
          "name": "vote_",
          "type": "uint256"
        }
      ],
      "stateMutability": "nonpayable",
      "type": "function"
    },
    {
      "inputs": [
        {
          "internalType": "bytes32",
          "name": "id",
          "type": "bytes32"
        },
        {
          "internalType": "string",
          "name": "imagehash",
          "type": "string"
        },
        {
          "internalType": "string",
          "name": "title",
          "type": "string"
        },
        {
          "internalType": "string",
          "name": "description",
          "type": "string"
        },
        {
          "internalType": "uint256",
          "name": "vote",
          "type": "uint256"
        }
      ],
      "name": "setImageMetaData",
      "outputs": [],
      "stateMutability": "nonpayable",
      "type": "function"
    }
  ],
  "bytecode": "0x608060405234801561001057600080fd5b5033600160006101000a81548173ffffffffffffffffffffffffffffffffffffffff021916908373ffffffffffffffffffffffffffffffffffffffff160217905550611c28806100616000396000f3fe608060405234801561001057600080fd5b506004361061007d5760003560e01c80638f321faf1161005b5780638f321faf146100f15780639f6c935814610121578063a3ec138d1461013d578063f85008a21461016d5761007d565b80630455d941146100825780630693c82d1461009e57806311498334146100d3575b600080fd5b61009c6004803603810190610097919061144a565b61019d565b005b6100b860048036038101906100b39190611519565b610403565b6040516100ca969594939291906115ec565b60405180910390f35b6100db6105d7565b6040516100e89190611823565b60405180910390f35b61010b60048036038101906101069190611519565b61080a565b6040516101189190611845565b60405180910390f35b61013b60048036038101906101369190611519565b610a0e565b005b610157600480360381019061015291906118c5565b610afc565b60405161016491906118f2565b60405180910390f35b61018760048036038101906101829190611519565b610b1a565b60405161019491906118f2565b60405180910390f35b600042905060006040518060c001604052808881526020018781526020018681526020018581526020018481526020018381525090508060008089815260200190815260200160002060008201518160000155602082015181600101908051906020019061020c929190611114565b506040820151816002019080519060200190610229929190611114565b506060820151816003019080519060200190610246929190611114565b506080820151816004015560a082015181600501559050506000805b60038054905081101561034f5788600382815481106102845761028361190d565b5b906000526020600020906006020160000154141561033c5782600382815481106102b1576102b061190d565b5b90600052602060002090600602016000820151816000015560208201518160010190805190602001906102e5929190611114565b506040820151816002019080519060200190610302929190611114565b50606082015181600301908051906020019061031f929190611114565b506080820151816004015560a08201518160050155905050600191505b80806103479061196b565b915050610262565b50806103f95760038290806001815401808255809150506001900390600052602060002090600602016000909190919091506000820151816000015560208201518160010190805190602001906103a7929190611114565b5060408201518160020190805190602001906103c4929190611114565b5060608201518160030190805190602001906103e1929190611114565b506080820151816004015560a0820151816005015550505b5050505050505050565b600060205280600052604060002060009150905080600001549080600101805461042c906119e3565b80601f0160208091040260200160405190810160405280929190818152602001828054610458906119e3565b80156104a55780601f1061047a576101008083540402835291602001916104a5565b820191906000526020600020905b81548152906001019060200180831161048857829003601f168201915b5050505050908060020180546104ba906119e3565b80601f01602080910402602001604051908101604052809291908181526020018280546104e6906119e3565b80156105335780601f1061050857610100808354040283529160200191610533565b820191906000526020600020905b81548152906001019060200180831161051657829003601f168201915b505050505090806003018054610548906119e3565b80601f0160208091040260200160405190810160405280929190818152602001828054610574906119e3565b80156105c15780601f10610596576101008083540402835291602001916105c1565b820191906000526020600020905b8154815290600101906020018083116105a457829003601f168201915b5050505050908060040154908060050154905086565b60606003805480602002602001604051908101604052809291908181526020016000905b8282101561080157838290600052602060002090600602016040518060c001604052908160008201548152602001600182018054610638906119e3565b80601f0160208091040260200160405190810160405280929190818152602001828054610664906119e3565b80156106b15780601f10610686576101008083540402835291602001916106b1565b820191906000526020600020905b81548152906001019060200180831161069457829003601f168201915b505050505081526020016002820180546106ca906119e3565b80601f01602080910402602001604051908101604052809291908181526020018280546106f6906119e3565b80156107435780601f1061071857610100808354040283529160200191610743565b820191906000526020600020905b81548152906001019060200180831161072657829003601f168201915b5050505050815260200160038201805461075c906119e3565b80601f0160208091040260200160405190810160405280929190818152602001828054610788906119e3565b80156107d55780601f106107aa576101008083540402835291602001916107d5565b820191906000526020600020905b8154815290600101906020018083116107b857829003601f168201915b5050505050815260200160048201548152602001600582015481525050815260200190600101906105fb565b50505050905090565b606060008060008481526020019081526020016000206040518060c001604052908160008201548152602001600182018054610845906119e3565b80601f0160208091040260200160405190810160405280929190818152602001828054610871906119e3565b80156108be5780601f10610893576101008083540402835291602001916108be565b820191906000526020600020905b8154815290600101906020018083116108a157829003601f168201915b505050505081526020016002820180546108d7906119e3565b80601f0160208091040260200160405190810160405280929190818152602001828054610903906119e3565b80156109505780601f1061092557610100808354040283529160200191610950565b820191906000526020600020905b81548152906001019060200180831161093357829003601f168201915b50505050508152602001600382018054610969906119e3565b80601f0160208091040260200160405190810160405280929190818152602001828054610995906119e3565b80156109e25780601f106109b7576101008083540402835291602001916109e2565b820191906000526020600020905b8154815290600101906020018083116109c557829003601f168201915b505050505081526020016004820154815260200160058201548152505090508060200151915050919050565b600160009054906101000a900473ffffffffffffffffffffffffffffffffffffffff1673ffffffffffffffffffffffffffffffffffffffff163373ffffffffffffffffffffffffffffffffffffffff1614610a9e576040517f08c379a0000000000000000000000000000000000000000000000000000000008152600401610a9590611aad565b60405180910390fd5b60005b600380549050811015610af8578160038281548110610ac357610ac261190d565b5b9060005260206000209060060201600001541415610ae557610ae481610fb7565b5b8080610af09061196b565b915050610aa1565b5050565b60046020528060005260406000206000915090508060000154905081565b600080600460003373ffffffffffffffffffffffffffffffffffffffff1673ffffffffffffffffffffffffffffffffffffffff1681526020019081526020016000206040518060200160405290816000820154815250509050600181600001818151610b869190611acd565b9150818152505080600460003373ffffffffffffffffffffffffffffffffffffffff1673ffffffffffffffffffffffffffffffffffffffff16815260200190815260200160002060008201518160000155905050600381600001511115610c22576040517f08c379a0000000000000000000000000000000000000000000000000000000008152600401610c1990611b6f565b60405180910390fd5b60008060008581526020019081526020016000206040518060c001604052908160008201548152602001600182018054610c5b906119e3565b80601f0160208091040260200160405190810160405280929190818152602001828054610c87906119e3565b8015610cd45780601f10610ca957610100808354040283529160200191610cd4565b820191906000526020600020905b815481529060010190602001808311610cb757829003601f168201915b50505050508152602001600282018054610ced906119e3565b80601f0160208091040260200160405190810160405280929190818152602001828054610d19906119e3565b8015610d665780601f10610d3b57610100808354040283529160200191610d66565b820191906000526020600020905b815481529060010190602001808311610d4957829003601f168201915b50505050508152602001600382018054610d7f906119e3565b80601f0160208091040260200160405190810160405280929190818152602001828054610dab906119e3565b8015610df85780601f10610dcd57610100808354040283529160200191610df8565b820191906000526020600020905b815481529060010190602001808311610ddb57829003601f168201915b50505050508152602001600482015481526020016005820154815250509050600181608001818151610e2a9190611acd565b9150818152505080600080868152602001908152602001600020600082015181600001556020820151816001019080519060200190610e6a929190611114565b506040820151816002019080519060200190610e87929190611114565b506060820151816003019080519060200190610ea4929190611114565b506080820151816004015560a082015181600501559050508060800151925060005b600380549050811015610faf578460038281548110610ee857610ee761190d565b5b9060005260206000209060060201600001541415610f9c578160038281548110610f1557610f1461190d565b5b9060005260206000209060060201600082015181600001556020820151816001019080519060200190610f49929190611114565b506040820151816002019080519060200190610f66929190611114565b506060820151816003019080519060200190610f83929190611114565b506080820151816004015560a082015181600501559050505b8080610fa79061196b565b915050610ec6565b505050919050565b6003805490508110610fc857600080fd5b60036001600380549050610fdc9190611b8f565b81548110610fed57610fec61190d565b5b90600052602060002090600602016003828154811061100f5761100e61190d565b5b906000526020600020906006020160008201548160000155600182018160010190805461103b906119e3565b61104692919061119a565b50600282018160020190805461105b906119e3565b61106692919061119a565b50600382018160030190805461107b906119e3565b61108692919061119a565b50600482015481600401556005820154816005015590505060038054806110b0576110af611bc3565b5b60019003818190600052602060002090600602016000808201600090556001820160006110dd9190611227565b6002820160006110ed9190611227565b6003820160006110fd9190611227565b600482016000905560058201600090555050905550565b828054611120906119e3565b90600052602060002090601f0160209004810192826111425760008555611189565b82601f1061115b57805160ff1916838001178555611189565b82800160010185558215611189579182015b8281111561118857825182559160200191906001019061116d565b5b5090506111969190611267565b5090565b8280546111a6906119e3565b90600052602060002090601f0160209004810192826111c85760008555611216565b82601f106111d95780548555611216565b8280016001018555821561121657600052602060002091601f016020900482015b828111156112155782548255916001019190600101906111fa565b5b5090506112239190611267565b5090565b508054611233906119e3565b6000825580601f106112455750611264565b601f0160209004906000526020600020908101906112639190611267565b5b50565b5b80821115611280576000816000905550600101611268565b5090565b6000604051905090565b600080fd5b600080fd5b6000819050919050565b6112ab81611298565b81146112b657600080fd5b50565b6000813590506112c8816112a2565b92915050565b600080fd5b600080fd5b6000601f19601f8301169050919050565b7f4e487b7100000000000000000000000000000000000000000000000000000000600052604160045260246000fd5b611321826112d8565b810181811067ffffffffffffffff821117156113405761133f6112e9565b5b80604052505050565b6000611353611284565b905061135f8282611318565b919050565b600067ffffffffffffffff82111561137f5761137e6112e9565b5b611388826112d8565b9050602081019050919050565b82818337600083830152505050565b60006113b76113b284611364565b611349565b9050828152602081018484840111156113d3576113d26112d3565b5b6113de848285611395565b509392505050565b600082601f8301126113fb576113fa6112ce565b5b813561140b8482602086016113a4565b91505092915050565b6000819050919050565b61142781611414565b811461143257600080fd5b50565b6000813590506114448161141e565b92915050565b600080600080600060a086880312156114665761146561128e565b5b6000611474888289016112b9565b955050602086013567ffffffffffffffff81111561149557611494611293565b5b6114a1888289016113e6565b945050604086013567ffffffffffffffff8111156114c2576114c1611293565b5b6114ce888289016113e6565b935050606086013567ffffffffffffffff8111156114ef576114ee611293565b5b6114fb888289016113e6565b925050608061150c88828901611435565b9150509295509295909350565b60006020828403121561152f5761152e61128e565b5b600061153d848285016112b9565b91505092915050565b61154f81611298565b82525050565b600081519050919050565b600082825260208201905092915050565b60005b8381101561158f578082015181840152602081019050611574565b8381111561159e576000848401525b50505050565b60006115af82611555565b6115b98185611560565b93506115c9818560208601611571565b6115d2816112d8565b840191505092915050565b6115e681611414565b82525050565b600060c0820190506116016000830189611546565b818103602083015261161381886115a4565b9050818103604083015261162781876115a4565b9050818103606083015261163b81866115a4565b905061164a60808301856115dd565b61165760a08301846115dd565b979650505050505050565b600081519050919050565b600082825260208201905092915050565b6000819050602082019050919050565b61169781611298565b82525050565b600082825260208201905092915050565b60006116b982611555565b6116c3818561169d565b93506116d3818560208601611571565b6116dc816112d8565b840191505092915050565b6116f081611414565b82525050565b600060c08301600083015161170e600086018261168e565b506020830151848203602086015261172682826116ae565b9150506040830151848203604086015261174082826116ae565b9150506060830151848203606086015261175a82826116ae565b915050608083015161176f60808601826116e7565b5060a083015161178260a08601826116e7565b508091505092915050565b600061179983836116f6565b905092915050565b6000602082019050919050565b60006117b982611662565b6117c3818561166d565b9350836020820285016117d58561167e565b8060005b8581101561181157848403895281516117f2858261178d565b94506117fd836117a1565b925060208a019950506001810190506117d9565b50829750879550505050505092915050565b6000602082019050818103600083015261183d81846117ae565b905092915050565b6000602082019050818103600083015261185f81846115a4565b905092915050565b600073ffffffffffffffffffffffffffffffffffffffff82169050919050565b600061189282611867565b9050919050565b6118a281611887565b81146118ad57600080fd5b50565b6000813590506118bf81611899565b92915050565b6000602082840312156118db576118da61128e565b5b60006118e9848285016118b0565b91505092915050565b600060208201905061190760008301846115dd565b92915050565b7f4e487b7100000000000000000000000000000000000000000000000000000000600052603260045260246000fd5b7f4e487b7100000000000000000000000000000000000000000000000000000000600052601160045260246000fd5b600061197682611414565b91507fffffffffffffffffffffffffffffffffffffffffffffffffffffffffffffffff8214156119a9576119a861193c565b5b600182019050919050565b7f4e487b7100000000000000000000000000000000000000000000000000000000600052602260045260246000fd5b600060028204905060018216806119fb57607f821691505b60208210811415611a0f57611a0e6119b4565b5b50919050565b7f596f7520617265206e6f7420616c6c6f77656420746f2072656d6f766520696d60008201527f6167652c206f6e6c79206f776e6572206f6620736d61727420636f6e7472616360208201527f742063616e2072656d6f766520696d616765732e000000000000000000000000604082015250565b6000611a97605483611560565b9150611aa282611a15565b606082019050919050565b60006020820190508181036000830152611ac681611a8a565b9050919050565b6000611ad882611414565b9150611ae383611414565b9250827fffffffffffffffffffffffffffffffffffffffffffffffffffffffffffffffff03821115611b1857611b1761193c565b5b828201905092915050565b7f596f752068617665206f6e6c79203320766f74657320746f74616c2100000000600082015250565b6000611b59601c83611560565b9150611b6482611b23565b602082019050919050565b60006020820190508181036000830152611b8881611b4c565b9050919050565b6000611b9a82611414565b9150611ba583611414565b925082821015611bb857611bb761193c565b5b828203905092915050565b7f4e487b7100000000000000000000000000000000000000000000000000000000600052603160045260246000fdfea264697066735822122042a51791f81e2622c861fc3b3b1fe256522a4050599916d0460c59cfd29943d164736f6c634300080a0033",
  "immutableReferences": {},
  "source": "// SPDX-License-Identifier: MIT\npragma solidity ^0.8.4;\n\ncontract MetaData {\n\n    // Data structure of the logged transaction detail\n    struct TImage {\n        bytes32 id;\n        string imagehash;\n        string title;\n        string description;\n        uint256 vote;\n        uint256 time;\n    }\n    \n\n\n    // one for each type (this to avoid key-collisions between the types)\n    mapping(bytes32 => TImage) public tImgList;\n\n\n    // var to hold the owner address\n    address owner;\n    address private voter;\n    TImage[] internal imagesArray;\n\n\n    // Function to retrieve all log details of a logged transaction identified by _identifier\n    function getImageMetaData(bytes32 _identifier) public view returns (string memory) {\n\n            TImage memory log = tImgList[_identifier];\n            return log.imagehash;\n\n    }\n    \n   \n\n    // constructor sets owner of transaction\n    constructor() {\n        \n        owner = msg.sender;\n    }\n\n    \n    function getImages()public view returns( TImage [] memory){\n        return imagesArray;\n    }\n\n\n  // Move the last element to the deleted spot.\n  // Remove the last element.\n    function burn(uint index) internal {\n        require(index < imagesArray.length);\n        imagesArray[index] = imagesArray[imagesArray.length-1];\n        imagesArray.pop();\n    }\n\n    function removeImage(bytes32 id) public  {\n\n     // caller must be the owner of this contract\n     require(msg.sender == owner, \"You are not allowed to remove image, only owner of smart contract can remove images.\");\n\n      for (uint p = 0; p < imagesArray.length; p++) {\n            if (imagesArray[p].id == id) {\n                burn(p);\n            }\n        }\n\n    }\n    \n    mapping(address => Voter) public voters;\n\n    struct Voter {\n        uint vote; \n    }\n\n\n\n    function setVote(bytes32 id) public returns (uint256 vote_) {\n\n      Voter memory v = voters[msg.sender];\n      v.vote += 1;\n      voters[msg.sender] = v;\n      require(v.vote <= 3 , \"You have only 3 votes total!\");\n \n\n      TImage memory log = tImgList[id];\n      log.vote += 1;\n      tImgList[id] = log;\n      vote_ = log.vote;\n      \n     \n      for (uint p = 0; p < imagesArray.length; p++) {\n            if (imagesArray[p].id == id) {\n                imagesArray[p] = log;\n            }\n      }\n      \n          \n\n    }\n\n\n    // Log transaction hash and details; ID, blocktime, State and Type\n    function setImageMetaData(\n        bytes32 id,\n        string memory imagehash,//QmbGPXcDZT8opm2KTFYoyas1X7iRXu2tyJHiY18rfeuLEB?filename=arthas.jpeg\n        string memory title,\n        string memory description,\n        uint256 vote\n    ) public {\n\n        // Get block-time and save as BigInt\n        uint256 time = block.timestamp;\n\n        // store metadata umage to blockchain\n        TImage memory log = TImage(id, imagehash, title, description, vote, time);\n        tImgList[id] = log;\n        \n         bool isExist = false;\n         \n         for (uint p = 0; p < imagesArray.length; p++) {\n            if (imagesArray[p].id == id) {\n                imagesArray[p] = log;\n                isExist = true;\n            }\n         }\n         \n         if (!isExist) {\n           imagesArray.push(log);\n         }\n      \n\n    }\n}\n",
  "sourcePath": "/Users/aishmukh/Projects/hack16-blockbusters-nft-poc/contracts/MetaData.sol",
  "compiler": {
    "name": "solc",
    "version": "0.8.10+commit.fc410830.Emscripten.clang"
  },
  "schemaVersion": "3.4.3",
  "updatedAt": "2021-11-17T11:07:40.510Z",
  "networkType": "ethereum",
  "devdoc": {
    "kind": "dev",
    "methods": {},
    "version": 1
  },
  "userdoc": {
    "kind": "user",
    "methods": {},
    "version": 1
  }
}